:020000040800F2
:100000003008002065020008CD150008190E000810
:100010007115000843050008C91D00080000000014
:10002000000000000000000000000000CD010008FA
:10003000CD0800080000000011020008D91B0008CC
:100040007F0200087F0200087F0200087F0200088C
:100050007F0200087F0200087F0200087F0200087C
:100060007F0200087F0200087F0200087F0200086C
:100070007F0200087F0200087F0200087F0200085C
:100080007F0200087F0200087F0200087F0200084C
:100090007F0200087F0200087F0200087F0200083C
:1000A0007F0200087F0200087F0200087F0200082C
:1000B0007F0200087F0200087F0200087F0200081C
:1000C0007F0200087F0200087F0200087F0200080C
:1000D0007F0200087F0200087F0200087F020008FC
:1000E0007F0200087F0200087F0200087F020008EC
:1000F0007F0200087F0200087F0200087F020008DC
:100100007F0200087F0200087F0200087F020008CB
:100110007F0200087F0200087F0200087F020008BB
:100120007F0200087F0200087F0200087F020008AB
:1001300000F002F800F03AF80AA090E8000C8244BF
:100140008344AAF10107DA4501D100F02FF8AFF29C
:10015000090EBAE80F0013F0010F18BFFB1A43F0A5
:10016000010318470455000044550000103A24BF0D
:1001700078C878C1FAD8520724BF30C830C144BF0C
:1001800004680C607047000000230024002500264E
:10019000103A28BF78C1FBD8520728BF30C148BFEA
:1001A0000B6070471FB51FBD10B510BD00F0C3F840
:1001B0001146FFF7F7FF01F07CFE00F0E1F803B411
:1001C000FFF7F2FF03BC00F0EBF80000224B1968C8
:1001D0000868B0E8F00F80F30988BFF36F8F4FF025
:1001E000000080F311884EF00D0E704700000000F3
:1001F00006480068006880F3088862B661B6BFF3FD
:100200004F8FBFF36F8F00DF00BF00BF08ED00E02E
:10021000EFF30980BFF36F8F0F4B1A6820E9F00FDF
:10022000106008B54FF0BF0080F31188BFF34F8F07
:10023000BFF36F8F03F050F94FF0000080F3118887
:10024000BDE8084019680868B0E8F00F80F3098835
:10025000BFF36F8F704700BF18000020EFF30580D9
:10026000704700000948804709480047FEE7FEE75D
:10027000FEE7FEE7FEE7FEE7FEE7FEE7FEE7FEE756
:1002800004480549054A064B70470000411C000818
:100290003101000830020020300800203004002026
:1002A0003004002010B5431C02E010F8011B71B1AE
:1002B0008107FAD14FF0013202C88C1A8C4314EA3C
:1002C000C211F9D0C01A0A0603D0C01E10BDC01A50
:1002D00010BD0A0401D0801E10BD0902FCD0401ED2
:1002E00010BD4FF0000200B51346944696462039E3
:1002F00022BFA0E80C50A0E80C50B1F12001BFF4DF
:10030000F7AF090728BFA0E80C5048BF0CC05DF844
:1003100004EB890028BF40F8042B08BF704748BF92
:1003200020F8022B11F0804F18BF00F8012B704706
:10033000704770477047754600F02CF8AE460500D0
:100340006946534620F00700854618B020B5FFF7F0
:1003500097FFBDE820404FF000064FF000074FF038
:1003600000084FF0000B21F00701AC46ACE8C009D3
:10037000ACE8C009ACE8C009ACE8C0098D467047DC
:1003800010B50446AFF300802046BDE81040FFF7EB
:1003900016BF000000487047D001002070470000E1
:1003A00001491820ABBEFEE72600020010B500F0A0
:1003B00035FD10BD5348806940F004005149886103
:1003C00051480068514908404F4908600846006894
:1003D00008604C48806940F400704A4988610846CA
:1003E000C06840F40070C8600846C06820F400701F
:1003F000C8600846406820F44040486008464068AD
:1004000040F4004048604248006842490840404982
:1004100008600846006808600846006820F480709C
:100420000860081D006820F00200091D08600846E9
:10043000006820F4602008600846006840F46020EE
:1004400008600846006840F48010086008460068AC
:1004500020F4006008602E482830006820F4700006
:100460002B492831086008460068086028480C308D
:10047000006820F0F80026490C3108600846006842
:1004800040F0F80008600846006820F4600008604A
:100490000846006840F460000860081F006820F407
:1004A000F800091F08600846006840F4F80008607A
:1004B000081F006840F40000091F08600846006833
:1004C00040F0010008600846006840F0080008603D
:1004D00000BF0F48001D006800F008000028F8D198
:1004E0000B48001D006840F004000949091D086020
:1004F00000BF0748001D006800F004000028F8D184
:100500007047000000100240000801400F00FF0F7C
:1005100004240140FFFFF00000F0F6FF00F01AFD98
:10052000FFF744FF3C2140F2833000F00DF8FFF765
:1005300041FF00F09DF900BF01F06EFFFCE700BF36
:10054000FEE700BFFEE7000070B504460D462946F1
:10055000204601F0E5FB00200149088070BD000045
:10056000342C01402DE9F0410446012501260027E5
:1005700076E0012C2FD102203C49087004E0681C71
:10058000C5B2012001F06AFC4FF48061384800F0E8
:10059000BCFB38B9354801780078401C334A1070EC
:1005A0000029ECD102203149087004E0701CC6B269
:1005B000012001F053FC4FF480612D4800F0A5FBB1
:1005C000002837D0294801780078401C274A10704D
:1005D0000029EBD12EE06CBB02202449087004E016
:1005E000681CC5B2012001F039FC4FF400712048AD
:1005F00000F08BFB38B91D4801780078401C1B4A7D
:1006000010700029ECD102201849087004E0701C19
:10061000C6B2012001F022FC4FF40071144800F032
:1006200074FB38B1114801780078401C0F4A1070F3
:100630000029ECD10F4800784006000E0D490870E3
:10064000B54203DB08460078087005E009480078E9
:1006500040F001000749087001250126781CC7B247
:10066000082F86DB0020BDE8F08100001300002089
:1006700000080140150000202DE9FE4F80460020B3
:10068000744908714FF07E5073498860B8F1000FCB
:100690007DD17248006820F0F0007049086008467B
:1006A000006840F03000086049156C48001F00F0F9
:1006B00035FB122001F0CCFB02F006FF6748006812
:1006C00020F0F000654908600846006840F08000AE
:1006D000086002206249087000BF4FF400715F4853
:1006E000001F00F012FB38B15D4801780078401C13
:1006F0005B4A10700029F0D14FF400715748001F79
:1007000000F003FB00287DD102205549087000BF8E
:100710004FF400715148001F00F0F7FA38B9504803
:1007200001780078401C4E4A10700029F0D1022058
:100730004B49087000BF4FF400714848001F00F09B
:10074000E4FA38B1464801780078401C444A1070F9
:100750000029F0D14046FFF705FF424806784046A1
:10076000FFF700FF3F4807784046FFF7FBFE3D4894
:1007700005784046FFF7F6FE3A4804784046FFF712
:10078000F1FE384890F800903448006800E05DE0E1
:1007900020F0F000314908600846006840F0300061
:1007A000086049152D48001F00F0BAFA2819304496
:1007B00038442D4908700846007848453DD1254801
:1007C0008670C7700570447001202249087104F0DA
:1007D000800109B1811E00E00121084603F010FAF2
:1007E000029004F07F0003F00BFA2049009003F020
:1007F000D5F88346284603F01BFA5946019003F0CA
:100800005FF800E020E08246029903F059FA1249AD
:100810000860384603F00CFA8346144903F0BEF82A
:100820008246304603F004FA5146029003F048F83D
:10083000094948600020886006E0002005490871E9
:100840004FF07E500449886002F08CFF0020BDE824
:10085000FE8F00000E0000207400002004080140FC
:10086000130000201500002014000020000020418B
:1008700000201449896941F00401124A916112492A
:10088000096821F47F61104A11601146096841F03E
:10089000300111600C490831096841F400710A4ABD
:1008A000083211600849096841F44071064A116034
:1008B00005490831096841F48061034A0832116032
:1008C000704700000010024004080140704700001B
:1008D0002DE9F84305460E4690461C46089F002029
:1008E0004D490880A6F1010C1FFA8CF305EBC40CEE
:1008F0000CF1010C1FFA8CF2A6F1010C1FFA8CF11D
:10090000A5F1010C1FFA8CF000F010F906EB070CB2
:100910000CF1010C1FFA8CF3A5F1010C1FFA8CF2FB
:10092000A6F1010C1FFA8CF1A5F1010C1FFA8CF055
:1009300000F0FCF806EB070C0CF1010C1FFA8CF32D
:1009400005EBC40C0CF1010C1FFA8CF206EB070C42
:100950000CF1010C1FFA8CF1A5F1010C1FFA8CF0BF
:1009600000F0E4F806EB070C0CF1010C1FFA8CF315
:1009700005EBC40C0CF1010C1FFA8CF2A6F1010C72
:100980001FFA8CF105EBC40C0CF1010C1FFA8CF072
:1009900000F0CCF848F230401F49088006EB070C05
:1009A0000CF1020C1FFA8CF305EBC40C0CF1020CD9
:1009B0001FFA8CF206EB070C0CF1020C1FFA8CF1FB
:1009C000A5F1010C1FFA8CF000F0B0F806EB070C53
:1009D0000CF1020C1FFA8CF305EBC40C0CF1020CA9
:1009E0001FFA8CF2A6F1010C1FFA8CF105EBC40C76
:1009F0000CF1020C1FFA8CF000F098F8F01983B299
:100A000005EBC40082B231462846CDF8008000F0E4
:100A100053F8BDE8F8830000080000202DE9FF4FDF
:100A200081B0824617469846DDF838B00024454626
:100A30004FEA4800C0F10306BBF1000F1FD01BE0D6
:100A4000A14608E04B46224600975046029901F025
:100A5000BDF909F10109A945F4DD002E04DA0420ED
:100A600000FB0460861D06E0601B042101FB0060A2
:100A700000F10A066D1E641CAC42E1DD18E015E0D1
:100A80002B46224600975046029901F09FF9002E0E
:100A900004DA042000FB0460861D06E0601B0421CC
:100AA00001FB006000F10A066D1E641CAC42E7DD2C
:100AB00005B0BDE8F08F00002DE9F05F04460D465B
:100AC00016461F46301B401C1FFA80FA781B401C3C
:100AD0001FFA80FB3B4632462946204600F07EFB4B
:100AE0004FF000080FE04FF0000906E00A9800F010
:100AF00025FD09F101001FFA80F9D145F6DB08F167
:100B000001001FFA80F8D845EDDB07484088401EF9
:100B100083B205480088401E82B20021084600F0DA
:100B20005DFBBDE8F09F00005C0000202DE9FF4F59
:100B300085B081468A460020049003900798A0EB78
:100B400009050898A0EB0A06CDF80890CDF804A096
:100B5000002D01DD012705E00DB9002702E04FF06F
:100B6000FF376D42002E02DD4FF0010806E016B996
:100B70004FF0000802E04FF0FF387642B54201DD49
:100B80002C4600E034464FF0000B21E0019A91B270
:100B9000029A90B200F092F90498284404900398C5
:100BA000304403900498A04205DD0498001B049093
:100BB0000298384402900398A04205DD0398001B78
:100BC00003900198404401900BF101001FFA80FB53
:100BD000601C8345DADD09B0BDE8F08F70B50546CD
:100BE0000E4614463146284600F0EEFA204600F044
:100BF000A5FC70BD2DE9F04102460025002600202D
:100C000000230024002791F803C00CF00F0591F891
:100C100003C00CF0100CBCF1000F03D091F802C01F
:100C20004CEA050591F800C0BCF1000F31D0146802
:100C300000202BE04FF0010C0CFA00F3B1F800C0DB
:100C40000CEA03069E4220D183004FF00F0C0CFAF1
:100C500003F7BC4305FA03FC4CEA040491F803C013
:100C6000BCF1280F06D14FF0010C0CFA00FCC2F8C1
:100C700014C00AE091F803C0BCF1480F05D14FF051
:100C8000010C0CFA00FCC2F810C0401C0828D1D39B
:100C90001460B1F800C0BCF1FF0F34DD54680020CF
:100CA0002EE000F1080C4FF0010808FA0CF3B1F83F
:100CB00000C00CEA03069E4221D183004FF00F0CC6
:100CC0000CFA03F7BC4305FA03FC4CEA040491F860
:100CD00003C0BCF1280F05D100F1080C08FA0CF88C
:100CE000C2F8148091F803C0BCF1480F07D100F19D
:100CF000080C4FF0010808FA0CF8C2F81080401CEC
:100D00000828CED35460BDE8F081024600209368E5
:100D10000B400BB1012000E000207047416170479B
:100D20000161704770B505460E46144631462846A7
:100D300000F04AFA204600F001FC70BD2DE9F05F9A
:100D400081460F4614462046E21704EB5272D21039
:100D50002146E31704EB5373DB10A4EBC3030BB181
:100D6000012300E000231A44624302F0FF0B99F8CC
:100D7000006009F1010081460578812E05DB402DD8
:100D800003DBFF2D01D0FF2E0DD14FF0000A06E04E
:100D9000FF2007F8010B0AF1010000F0FF0ADA4515
:100DA000F6DBBDE8F09F7F2D03DAA5F14000C5B268
:100DB00002E0A5F14100C5B2A6F18100C6B2BE2095
:100DC00000FB065000FB0BF80C2C04D0102C0BD0B1
:100DD000182C1BD111E00F48C06800EB0801182245
:100DE000384600F0C9FC11E00A48406900EB0801F0
:100DF0002022384600F0C0FC08E00648C06900EB3D
:100E000008014822384600F0B7FC00BF00BF00BF11
:100E1000C7E70000AC01002000BFFEE70C48806976
:100E200040F008000A4988610A48006820F0FF0085
:100E3000084908600846006840F03300086005482B
:100E40000830006840F0030002490831086070472C
:100E500000100240040C014070B50646144840885A
:100E6000401E83B212480088401E82B2002108460C
:100E700000F0B4F94FF480500E49086080200E490C
:100E8000086100240AE0002503E0304600F056FB2C
:100E90006D1C07480088A842F7D8641C04484088A5
:100EA000A042F0D84FF480500249091F086070BD7D
:100EB0005C000020140C01400020014070B5044685
:100EC0000D462946204600F07FF90248008800F0D0
:100ED00035FB70BD0800002008B50121082000F096
:100EE00091FB4FF48050ADF8000003208DF8020014
:100EF00010208DF8030069461348FFF77BFE01219F
:100F0000102000F07FFB4FF40070ADF800000320CC
:100F10008DF8020010208DF8030069460B48FFF79A
:100F200069FE0121080200F06DFBC020ADF8000051
:100F300003208DF8020010208DF803006946044854
:100F4000FFF758FE08BD0000000C014000100140F2
:100F50000020014010B500F065FBFFF7BDFF00F079
:100F600023F9CF2000F066FA002000F04DFAC920E6
:100F700000F04AFA302000F047FAED2000F05AFA6B
:100F8000642000F041FA032000F03EFA122000F045
:100F90003BFA812000F038FAE82000F04BFA852077
:100FA00000F032FA102000F02FFA7A2000F02CFA2C
:100FB000CB2000F03FFA392000F026FA2C2000F078
:100FC00023FA002000F020FA342000F01DFA02205D
:100FD00000F01AFAF72000F02DFA202000F014FAA1
:100FE000EA2000F027FA002000F00EFA002000F0BE
:100FF0000BFAC02000F01EFA1B2000F005FAC120F9
:1010000000F018FA002000F0FFF9C52000F012FAF5
:10101000302000F0F9F9302000F0F6F9C72000F098
:1010200009FAB72000F0F0F9362000F003FA0820A2
:1010300000F0EAF93A2000F0FDF9552000F0E4F95B
:10104000B12000F0F7F9002000F0DEF91A2000F0DE
:10105000DBF9B62000F0EEF90A2000F0D5F9A22065
:1010600000F0D2F9F22000F0E5F9002000F0CCF910
:10107000262000F0DFF9012000F0C6F9E02000F0A2
:10108000D9F90F2000F0C0F92A2000F0BDF928207E
:1010900000F0BAF9082000F0B7F90E2000F0B4F91A
:1010A000082000F0B1F9542000F0AEF9A92000F0BA
:1010B000ABF9432000F0A8F90A2000F0A5F90F20B1
:1010C00000F0A2F9002000F09FF9002000F09CF948
:1010D000002000F099F9002000F096F9E12000F0DE
:1010E000A9F9002000F090F9152000F08DF91720E3
:1010F00000F08AF9072000F087F9112000F084F948
:10110000062000F081F92B2000F07EF9562000F037
:101110007BF93C2000F078F9052000F075F91020EB
:1011200000F072F90F2000F06FF93F2000F06CF929
:101130003F2000F069F90F2000F066F92B2000F045
:1011400079F9002000F060F9002000F05DF901203D
:1011500000F05AF93F2000F057F92A2000F06AF910
:10116000002000F051F9002000F04EF9002000F0BE
:101170004BF9EF2000F048F9112000F05BF97820DE
:1011800000F066FE292000F055F9032000F07AF9FE
:101190004FF400710348FFF7C3FD4FF6FF70FFF7F0
:1011A0005BFE10BD0010014010B5402005494861AC
:1011B000642000F04DFE402002490861322000F01A
:1011C00047FE10BD0020014070B504460D462B4679
:1011D00022462946204600F001F870BD2DE9F04175
:1011E00004460D4616461F461149887A00F022F93A
:1011F000201200F009F9E0B200F006F9301200F018
:1012000003F9F0B200F000F90949087B00F012F987
:10121000281200F0F9F8E8B200F0F6F8381200F001
:10122000F3F8F8B200F0F0F800F01AF9BDE8F08138
:101230005C0000202DE9FF4F83B081468A4693462B
:10124000DDE91064404800880290A6F12000C6B293
:1012500004EBD47009EB6000401E82B20AEB04007C
:10126000401E83B2514648460194FFF7B7FF1298DB
:1012700050BB002525E00C2C07D106EB4600334976
:1012800001EB800010F8058004E0314800EB061007
:1012900010F8058000270DE008F0010018B158464D
:1012A00000F04CF902E0069800F048F94FEA6808AF
:1012B000781CC7B204EBD471B7EB610FECDB681C90
:1012C000C5B2A542D7DB2DE0002529E00C2C07D1C3
:1012D00006EB46001D4901EB800010F8058004E094
:1012E0001B4800EB061010F80580002711E0164897
:1012F000A0F800B008F0010038B10AEB050291B285
:1013000009EB070290B2FFF7D9FD4FEA6808781C95
:10131000C7B204EBD471B7EB610FE8DB681CC5B250
:10132000A542D3DB0849029808800A484088401E3D
:1013300083B208480088401E82B200210846FFF7A9
:101340004DFF07B0BDE8F08F08000020BA3F00084D
:101350002E4400085C0000202DE9FF4F83B00746B3
:1013600091461E46109C4FF0000A002543E0701B7A
:10137000401EC1B20A2000F0AAFDB9FBF0F00A211C
:10138000B0FBF1F201FB1208BAF1000F1BD1701E85
:10139000A84218DDB8F1000F13D100202021A34688
:1013A000CDE90014029004EBDB71491001FB0571DB
:1013B00088B213490B8813490A880499FFF73AFF4A
:1013C00017E04FF0010A002108F13000C0B2A34637
:1013D000CDE90141009004EBDB71491001FB05717F
:1013E00088B207490B8807490A880499FFF722FF4A
:1013F00000BF681CC5B2B542B9DB07B0BDE8F08FCD
:101400000A0000200800002010B504464FF4805068
:1014100006490860802006490861204600F048F926
:101420004FF480500149091F086010BD140C0140A1
:101430000020014010B504464FF480500649086072
:10144000802006494861204600F032F94FF4805070
:101450000149091F086010BD140C01400020014023
:1014600010B50249087AFFF7E5FF10BD5C000020C7
:1014700070B505460C462846FFF7DCFFE0B2FFF7E3
:10148000C3FF70BD10B504462A201E4948812B2099
:1014900088812C20088134B1012C0FD0022C18D067
:1014A000032C2CD120E0F020164908804FF4A070C6
:1014B000488008213620FFF7DBFF21E04FF4A070C1
:1014C00010490880F020488068213620FFF7D0FFBF
:1014D00016E0F0200B4908804FF4A0704880C82126
:1014E0003620FFF7C5FF0BE04FF4A07005490880D8
:1014F000F0204880A8213620FFF7BAFF00E000BFA7
:1015000000BF10BD5C00002008B50121082000F0DC
:1015100079F810208DF803008001ADF80000032059
:101520008DF8020069460448FFF764FB4FF48061C0
:101530000148FFF7F5FB08BD000C014010B504465B
:101540004FF4805008490860802008490861201243
:1015500000F0AEF8E0B200F0ABF84FF48050024972
:10156000091F086010BD0000140C0140002001405C
:1015700000BFFEE77FB50020039002900024002505
:1015800003A80221CDE90010CA0108A10A48039B63
:1015900001F0ECFF02A802210023CA01CDE90010EE
:1015A00006A1094801F0E2FF7FBD00007379737462
:1015B000656D5F696E697400190500084170705FA0
:1015C0005461736B320000003F0500087047000053
:1015D00002490143024A1160704700000000FA0509
:1015E0000CED00E029B1064AD2690243044BDA61EE
:1015F00004E0034AD2698243014BDA61704700007C
:101600000010024029B1064A92690243044B9A61D4
:1016100004E0034A92698243014B9A6170470000DB
:101620000010024000B587B001218803FFF7DAFF00
:1016300001210820FFF7E6FF4FF46040ADF81800E5
:1016400003208DF81A0018208DF81B0006A91648F3
:10165000FFF7D0FA4FF460411348FFF761FB002019
:10166000ADF804004FF48270ADF806000020ADF82C
:1016700008000220ADF80A000120ADF80C0040027D
:10168000ADF80E000020ADF81000ADF812000720F4
:10169000ADF8140001A9054800F098F801210348AD
:1016A00000F05EF807B000BD000C014000380040BB
:1016B0000246002107E0481C81B24FF6FE708142CD
:1016C00001DD002070470F48008800F0020000286C
:1016D000F1D00C48001D0280002107E0481C81B2B7
:1016E0004FF6FE70814201DD0020EBE705480088DF
:1016F00000F001000028F1D00248001D0088C0B2AF
:10170000E0E70000083800400246002107E0481CDE
:1017100081B24FF6FE70814201DD002070470F4814
:10172000008800F002000028F1D00C48001D028063
:10173000002107E0481C81B24FF6FE70814201DDB6
:101740000020EBE70548008800F001000028F1D0F8
:101750000248001D0088C0B2E0E70000083C0040DD
:1017600021B1028842F04002028004E002884FF674
:10177000BF731A40028070472DE9F04106460C46BF
:10178000174640211048FFF7C9FA0320FFF7BCFFB6
:10179000C4F30740FFF7B8FFC4F30720FFF7B4FF17
:1017A000E0B2FFF7B1FF002505E0FF20FFF7ACFF37
:1017B0007055681C85B2BD42F7DB40210248FFF737
:1017C000AFFABDE8F0810000000C014010B5002226
:1017D000028802F441520B884C8823438C882343AF
:1017E000CC8823430C8923434C8923438C8923438E
:1017F000CC8923431A430280838B4FF2FF7423402A
:1018000083830B8A038210BD10B500F001F810BD70
:101810000CB50020019000903348006840F48030FF
:101820003149086000BF3048006800F40030009083
:101830000198401C0190009818B90198B0F5A06F6C
:10184000F1D12948006800F4003010B10120009067
:1018500001E0002000900098012843D1234800684F
:1018600040F01000214908600846006820F0070099
:1018700008600846006840F0020008601A484068A6
:10188000194948600846406848600846406840F486
:10189000806048600846406820F47C104860084634
:1018A000406840F4E81048600846006840F08070E6
:1018B000086000BF0C48006800F000700028F9D0F4
:1018C0000948406820F0030007494860084640681E
:1018D00040F00200486000BF0348406800F00C0080
:1018E0000828F9D10CBD0000001002400020024081
:1018F0002DE9FF4F83B081468A469346DDE91064A7
:10190000404800880290A6F12000C6B204EBD470D3
:1019100009EB6000401E82B20AEB0400401E83B255
:10192000514648460194FFF759FC129850BB0025D8
:1019300025E00C2C07D106EB4600334901EB800073
:1019400010F8058004E0314800EB061010F805801F
:1019500000270DE008F0010018B15846FFF7EEFD32
:1019600002E00698FFF7EAFD4FEA6808781CC7B264
:1019700004EBD471B7EB610FECDB681CC5B2A54278
:10198000D7DB2DE0002529E00C2C07D106EB460023
:101990001D4901EB800010F8058004E01B4800EBB6
:1019A000061010F80580002711E01648A0F800B0D6
:1019B00008F0010038B10AEB050291B209EB070209
:1019C00090B2FFF77BFA4FEA6808781CC7B204EBC5
:1019D000D471B7EB610FE8DB681CC5B2A542D3DB5D
:1019E0000849029808800A484088401E83B2084887
:1019F0000088401E82B200210846FFF7EFFB07B0C7
:101A0000BDE8F08F08000020BA3F00082E4400080F
:101A10005C0000202DE9FF4F93B007460D46984625
:101A2000219CAB462046E21704EB5272D2102146AD
:101A3000E31704EB5373DB10A4EBC3030BB10123D7
:101A400000E000231A446243D2B200920C2C06D06C
:101A5000102C04D0182C02D017B0BDE8F08F22460D
:101A600001A92098FFF76AF900262DE001A810F8D7
:101A700006904FF0000A21E009F0800028B12946C5
:101A80003846159AFFF7AAF806E0229820B9424690
:101A900029463846FFF7A2F84FEA49604FEA106935
:101AA000681C85B2A5EB0B00A04203D15D46781CF3
:101AB00087B206E00AF1010000F0FF0ABAF1080F50
:101AC000DADB00BF701CC6B200988642CEDB00BFD6
:101AD000C2E700002DE9F04F85B0064688469146E2
:101AE0009A460EACB0CC0496CDF80C804FF0000BAB
:101AF00034E0BBF1000F16D12078802802DD4FF0D2
:101B0000010B2BE0207853464A4641468DE8A10060
:101B10003046FFF7EDFE641C284605EBD07106EB5E
:101B200061018EB21AE04FF0000B0F480078AA282E
:101B300009D0782053464A4641468DE8A1003046F8
:101B4000FFF7D6FE07E053464A46414630468DE849
:101B5000B000FFF75FFFA41C701986B22078002840
:101B6000C7D105B0BDE8F08FAC0100202DE9FE4FD4
:101B700006460F4690469946DDE90D5A0C9C2046D4
:101B8000FEF790FB00F0FF0B5B46524639463046AD
:101B90000095FEF79DFE01204B4642463946CDE9B1
:101BA000004502903046FFF795FFBDE8FE8F042800
:101BB00008D14FF0E021096941F004014FF0E02223
:101BC000116107E04FF0E021096921F004014FF0B5
:101BD000E02211617047000010B500BFBF2080F304
:101BE0001188BFF34F8FBFF36F8F00BF01F0F2FC7E
:101BF00018B14FF080500449086000BF002080F306
:101C0000118800BF10BD000004ED00E010B50446CF
:101C10006FF00400FFF7CBFFE11704EB5171C9101F
:101C2000054A11601046008880B24FF47A7148432B
:101C30000249086010BD00000000002004000020E0
:101C400010B51448006840F00100124908600846C9
:101C50004068114908400F494860084600680F492C
:101C600008400C4908600846006820F4802008609D
:101C70000846406820F4FE0048604FF41F0088606A
:101C800000F010F8FFF7C0FD4FF000600449086055
:101C900010BD0000001002400000FFF8FFFFF6FE3C
:101CA00008ED00E04FF48A70134948614FF4F0707A
:101CB00088611248124908604FF0BB30091D086066
:101CC0001048114908604FF0BB30091D08600F48EB
:101CD0000F4908600F48091D08600C480E4908604C
:101CE0000E48486041F211004FF0204108614FF466
:101CF000007048617047000000100240BB44BB44C4
:101D000000140140BB4444B400180140BBBBBB44B9
:101D1000001C01404444BBBB00200140444B4444F0
:101D2000264A926942F00402244B9A61244A1268BE
:101D300022F00F02224B1A601A46126842F00B0280
:101D40001A601E4A926942F400621C4B9A611D4A55
:101D50001080121F11801B4A143A128842F0700240
:101D6000184B143B1A801A46128842F008021A8057
:101D7000144A0C3A128842F00102124B0C3B1A80B2
:101D8000104A1832128842F400420E4B18331A805F
:101D900080220C4B2C3B1A800A4A0C3A128842F0E3
:101DA0000202084B0C3B1A80064A2C3A128842F079
:101DB0000102044B2C3B1A807047000000100240C7
:101DC000040801402C2C014000BFFEE72DE9F04142
:101DD00004460D4616461F46DDF81880EA1991B2F2
:101DE000A21990B24246FEF79DFFEA1991B2A21BDA
:101DF00090B24246FEF796FFEA1B91B2A21990B24A
:101E00004246FEF78FFFEA1B91B2A21B90B24246F8
:101E1000FEF788FFAA1991B2E21990B24246FEF786
:101E200081FFAA1991B2E21B90B24246FEF77AFFF7
:101E3000AA1B91B2E21990B24246FEF773FFAA1BA9
:101E400091B2E21B90B24246FEF76CFFBDE8F08112
:101E500010B50446204601F0E5FA10BD2DE9F04723
:101E6000074600BF4FF0E020D0F8149007EBC70002
:101E70004FEAC008002601F027FB4FF0E0208569FB
:101E800011E04FF0E0208469AC420CD0AC4202D2A9
:101E9000281B064403E0A9EB040028440644254619
:101EA000464500D300E0ECE700BF01F05BFCBDE875
:101EB000F08710B54820FFF7A9FE4FF44070FFF7F8
:101EC00087FBFFF757FB01F0C7FA002010BD10B5E4
:101ED0000246012000E050430B1EA1F10104E1B2D3
:101EE000F9D110BD2DE9F04105460E462648076898
:101EF00026480068001D01F003FA50B92348006825
:101F000090F82C100120884021490968814320481D
:101F10000160681CD8B9D6B11E4948681B490968D8
:101F200088601A4982680968CA6018490968091DE9
:101F30008268516015490968091D8160154A134975
:101F400009684A6111460968491C11601AE07C1948
:101F50000E4800684460BC4207D20C480168091D65
:101F60000D48006801F0F0F90CE008480168091D0F
:101F70000A48006801F0E8F909480068844201D283
:101F800007480460BDE8F0812C0000201800002004
:101F90003000002098010020200000201C000020BC
:101FA0004800002010B5044601F0E8F92F48006809
:101FB000401C2E4908602E48006840B92C48046037
:101FC0000846006801280DD100F016F90AE02948FA
:101FD000006838B926480068C06AE16A884201D8BA
:101FE0002348046024480068401C2349086094F892
:101FF0002C10012088402149096808431F490860C6
:10200000E16A01EB81011E4A02EB81014868A06090
:102010008268E260211D826851608160E16A01EBA3
:102020008101174A02EB81026261E16A01EB8101E1
:10203000134A52F82110491CE26A02EB8202104B4B
:1020400043F8221001F0ACF90A48006868B108486A
:102050000068C06AE16A884207D24FF0805009499F
:102060000860BFF34F8FBFF36F8F10BD28000020B3
:102070001800002034000020440000203000002020
:102080008000002004ED00E010B516E001F076F9C4
:102090000C48C068C468201D01F032F90A48006885
:1020A000401E0949086009480068401E0749086049
:1020B00001F076F9204600F00BF80448006800288B
:1020C000E4D110BD8401002028000020240000205D
:1020D00010B50446206B01F073F9204601F070F949
:1020E00010BD000030B54FF47A23154800F0070406
:1020F0002CB1C01D20F00700114C041B1B1B024615
:10210000104C226000240F4D6C60D018083820F06D
:1021100007000D4C206000240B4D2D686C600A4DAB
:102120002D682C601146441A4C60074C24680C60E2
:10213000064D4C682C60064D4C682C6030BD00008C
:102140001C000068000000680800006810000068BB
:102150000C00006800BFFFF797FF064800680128E1
:10216000F9D94FF0805004490860BFF34F8FBFF397
:102170006F8FF0E78000002004ED00E02DE9FF5FA5
:1021800080460E469146DDE90E7A109CA9F10100C9
:10219000216B01EB800B2BF0070B7EB1002507E0D4
:1021A000715D04F134004155705D00B902E06D1CB1
:1021B000102DF5D300BF0021432001550A2F00D375
:1021C0000927E762201D01F0BCF804F1180001F0B6
:1021D000B8F82461C7F10A00A0616462414658461C
:1021E000039A00F007F92060BAF1000F01D0CAF895
:1021F0000040BDE8FF9F000010B5002407E004EB9D
:1022000084010F4A02EB810001F08EF8641C0A2C55
:10221000F5D30C4801F088F80B4801F085F80B481D
:1022200001F082F80A4801F07FF80A4801F07CF8D2
:1022300004480949086004480849086010BD0000C6
:1022400080000020480100205C0100207001002077
:1022500084010020980100201C00002020000020A4
:1022600010B50146164800E0006803688B42FBD3B6
:102270000246436813448B4204D143684C682344AC
:10228000436001460A464B6813440468A34211D1D7
:102290000C4C03682468A34208D04B680468646847
:1022A00023444B6003681B680B6005E0054B1B680B
:1022B0000B6001E003680B60884200D0016010BD34
:1022C000000000680800006809480068006808B954
:1022D000012000E0002020B14FF0FF3005490860E8
:1022E00005E003480068C06800680249086070475C
:1022F0001C0000204800002000BFBF2080F3118890
:10230000BFF34F8FBFF36F8F00BF00BFFEE700002A
:102310002DE9F04705464FF0000901F0D5F83048A7
:10232000006808B9FFF7DEFE75B105F00700C0F1DF
:102330001008C8F1FF30A84201D2012000E00020BF
:1023400008B9454400E00025012000EBE5700028B5
:1023500041D0002D3FD02348006885423BD8224E13
:102360003046046801E0264624686068A84202D22C
:1023700020680028F7D11A48006884422BD03068C2
:1023800000F10809206830606068401B102807D9F8
:1023900067196068401B786065603846FFF760FF2A
:1023A000104960680968081A0E4908600846006804
:1023B0000E490968884203D20A4800680B49086040
:1023C000606840F0004060600020206008480068BD
:1023D000401C0749086001F0C5F94846BDE8F08790
:1023E000080000680C000068000000681000006829
:1023F00014000068001F4FF080730360001F21F07D
:1024000001030360001F034B03601438026020388F
:1024100070470000F922000810B5A2B001202190F9
:1024200000200D900C9001200B90FA210B9891FB4D
:10243000F0F080B20A900A98401C80000990FFF7E3
:1024400067FF1F900A98401C80000990FFF760FF0B
:102450001E900A98401C0990FFF75AFF1D900A9899
:10246000401C80000990FFF753FF1C900A98401C05
:1024700080000990FFF74CFF1B900A98401C0990C0
:10248000FFF746FF1A901F9848B11E9838B11D9863
:1024900028B11C9818B11B9808B11A9800BB0020ED
:1024A0001821FEA24FF6FF73CDE9002102904FF4F0
:1024B000784264213220FFF70DFB1F9800F080FF67
:1024C0001E9800F07DFF1C9800F07AFF1B9800F02A
:1024D00077FF4FF47A70FFF7BBFC002022B010BDED
:1024E00000BFF14818901990F048169017901620E8
:1024F00015901390142014901290162011900F90A4
:10250000122010900E9001200D900C900020209031
:1025100015E0E54ADDE91F0140F821201E992098C9
:1025200041F82020E24A20991C9840F82120209967
:102530001B9840F821202098401CC0B220900A9897
:10254000401C20998142E4DB4FF6FF70FEF784FCCB
:102550004FF478401022D7A14FF6FF73CDE9001257
:102560000290002207210320FFF700FB0120102129
:10257000D2A24FF6FF73CDE9002102904FF47842CA
:1025800007213C20FFF7A6FA01201021CDA24FF62B
:10259000FF73CDE9002102901F2207218420FFF75D
:1025A00099FA47F67C521020C7A14FF6FF73CDE988
:1025B0000102009100220721B420FFF7D7FA4FF45F
:1025C0007840C3490880E62318221E211046FEF7F2
:1025D000ADFA1E23182223211420FEF7A7FA1E238A
:1025E000182223211C20FEF7A1FA50231E2219468F
:1025F0001820FEF79BFA82231E2219461820FEF7A8
:1026000095FAB4231E2219461820FEF78FFA1F20D0
:10261000AF490880E6234FF498721E211046FEF75A
:1026200085FA1E234FF498722321101FFEF77EFABD
:102630001E234FF498722321101DFEF777FA5023C2
:102640004FF498721946101FFEF770FA82234FF468
:1026500098721946101FFEF769FAB4234FF4987266
:102660001946101FFEF762FA002099490880E623F8
:102670004FF4987219461820FEF758FA002020905F
:1026800015E0209800EB80001E2101EB400009902E
:10269000209800EB800001EB4000EB230890E6213E
:1026A000099AFEF743FA2098401CC0B22090209867
:1026B0001C28E6DBFEE30020FDF7DEFF854880688E
:1026C0000021099001F02CFA7ED1012003234FF460
:1026D000FC620F210090E120FEF7A0F97D4802681E
:1026E0000A991E9840F821207A4842680A991B9856
:1026F00040F821201E98806819901E9880681890D4
:102700001B98806817901B98806816900020209076
:1027100081E020991E9850F821201F9840F8212030
:1027200020991E9800EB810042681E9840F82120F5
:1027300020991E9850F8210009901F9850F8210008
:102740000890099901F0ECF903D0012220991D9815
:10275000425420991E9850F821000146099019987A
:1027600001F07AFA04D220991E9850F821001990AD
:1027700020991E9850F8210001460990189801F000
:102780006BFB04D220991E9850F8210018902099D4
:102790001B9850F821201C9840F8212020991B9864
:1027A00000EB810042681B9840F8212020991B987B
:1027B00050F8210009901C9850F8210008900999C0
:1027C00001F0AEF905D000E0FEE3012220991A984D
:1027D000425420991B9850F82100014609901798FF
:1027E00001F03AFA04D220991B9850F82100179072
:1027F00020991B9850F8210001460990169801F085
:102800002BFB04D220991B9850F821001690209899
:10281000401CC0B220900A9920988842FFF679AFF8
:1028200000202D4908804FF47840294908800A98F3
:10283000401E1E9951F820000021099001F00CFB68
:102840000ED80120102125A24FF6FF73CDE90021FB
:1028500002904FF4784207213220FFF73BF916E04F
:102860004FF6FF7017233A22072100903220FEF71F
:1028700023F9012210201AA14FF6FF73CDE90102BE
:1028800000914FF4784207213220FFF723F90A988C
:10289000401E1E9951F82000124925E0C4DAB4E622
:1028A000B2BBD7E3A3A100000000A841000024426E
:1028B0000000A041B7B5BBD80000000020202E20AA
:1028C00020A1E60020202500CDE2BDD300000000BD
:1028D0000800002074000020342C01402B00000070
:1028E0002D00000000002041069001F0E9F907905A
:1028F00001F04AF90990002801DB099801E00998E4
:1029000040420A2190FBF1F0089010200223009031
:1029100007213C20089AFEF71FFD0A98401E1E99C9
:1029200051F82000FE49069001F0CAF9079001F025
:102930002BF90990002801DB099801E00998404231
:102940000A2190FBF1F201FB1200089010200123F4
:10295000009007215420089AFEF7FEFC1F20F14941
:1029600008800A98401E1B9951F82000EC490690F7
:1029700001F0A6F9079001F007F90990002801DBA2
:10298000099801E0099840420A2190FBF1F0089073
:1029900010200223009007218420089AFEF7DCFC17
:1029A000199801F0F1F8401C1590189801F0ECF816
:1029B000401E1490179801F0E7F8401C11901698EB
:1029C00001F0E2F8401E109001202090C5E2DDE900
:1029D0001410401A039001F013F90590149801F0B7
:1029E0000FF9039020991E9800EB810050F8040C19
:1029F00001460290039801F060FA0490059900F0F6
:102A0000CDFFC949069001F05BF9C849079001F074
:102A100054FA0990DDE91210401A039001F0F0F821
:102A20000590129801F0ECF80390DDE91F0100EB2E
:102A3000810050F8040C01460290039801F03DFA21
:102A40000490059900F0AAFFB749069001F038F903
:102A5000B649079001F031FA0890099901F060F841
:102A600001D0012400E00024DDE91410401A039095
:102A700001F0C6F80590149801F0C2F8039020996F
:102A80001E9850F8210001460290039801F015FAB3
:102A90000490059900F082FFA349069001F010F917
:102AA000A249079001F009FA0990DDE91210401AD5
:102AB000039001F0A5F80590129801F0A1F8039099
:102AC000DDE91F0150F8210001460290039801F052
:102AD000F4F90490059900F061FF9349069001F024
:102AE000EFF89249079001F0E8F90890099901F090
:102AF00017F801D0012000E000200443002C7DD015
:102B00004FF6FF7087490880DDE91210401A0290E5
:102B100001F076F80490129801F072F80290DDE965
:102B20001F0150F8210001460190029801F0C5F9FB
:102B30000390049900F032FF7B49059001F0C0F842
:102B40007A49069001F0B9F9079001F039F880B29E
:102B50000990DDE91210401A029001F051F804903A
:102B6000129801F04DF80290DDE91F0100EB8100A1
:102B700050F8040C01460190029801F09EF9039070
:102B8000049900F00BFF6849059001F099F8674936
:102B9000069001F092F9079001F012F880B20890C7
:102BA0000B9920984843293080B207902098401E06
:102BB0004843293080B20690DDE90813079AFDF7F3
:102BC000B5FF4FF4784057490880DDE91410401AEA
:102BD000029001F015F80490149801F011F8029099
:102BE00020991E9850F8210001460190029801F0AA
:102BF00064F90390049900F0D1FE00E044E04A49F2
:102C0000059001F05DF84949069001F056F90790EA
:102C100000F0D6FF80B20990DDE91410401A02904E
:102C200000F0EEFF0490149800F0EAFF0290209963
:102C30001E9800EB810050F8040C014601900298A8
:102C400001F03BF90390049900F0A8FE3649059085
:102C500001F036F83549069001F02FF9079000F0A1
:102C6000AFFF80B208900B9920984843293080B27A
:102C700007902098401E4843293080B20690DDE935
:102C80000813079AFDF752FFDDE91010401A039070
:102C900000F0B6FF0590109800F0B2FF0390209965
:102CA0001B9800EB810050F8040C01460290039839
:102CB00001F003F90490059900F070FE1A4906909E
:102CC00000F0FEFF1949079001F0F7F80990DDE9DF
:102CD0000E10401A039000F093FF05900E9800F03C
:102CE0008FFF039020991C9800EB810050F8040C92
:102CF00001460290039801F0E0F80490059900F075
:102D00004DFE0949069000F0DBFF0849079001F0ED
:102D1000D4F80890099900F003FF09D0012408E0D5
:102D200000002041080000200000484300006643E6
:102D30000024DDE91010401A039000F061FF0590B7
:102D4000109800F05DFF039020991B9850F8210027
:102D500001460290039801F0B0F80490059900F044
:102D60001DFEFC49069000F0ABFFFB49079001F007
:102D7000A4F80990DDE90E10401A039000F040FF1E
:102D800005900E9800F03CFF039020991C9850F895
:102D9000210001460290039801F08FF804900599F4
:102DA00000F0FCFDEB49069000F08AFFEA4907902D
:102DB00001F083F80890099900F0B2FE01D00120DB
:102DC00000E000200443002C75D04FF6FF70E3496B
:102DD0000880DDE90E10401A029000F011FF049007
:102DE0000E9800F00DFF029020991C9850F82100D9
:102DF00001460190029801F060F80390049900F0F8
:102E0000CDFDD449059000F05BFFD349069001F059
:102E100054F8079000F0D4FE80B20990DDE90E105E
:102E2000401A029000F0ECFE04900E9800F0E8FECC
:102E3000029020991C9800EB810050F8040C014688
:102E40000190029801F039F80390049900F0A6FD72
:102E5000C049059000F034FFBF49069001F02DF8FD
:102E6000079000F0ADFE80B208900B99209848437F
:102E7000293080B207902098401E4843293080B204
:102E80000690DDE90813079AFDF750FE1F20B349AD
:102E90000880DDE91010401A029000F0B1FE0490A5
:102EA000109800F0ADFE029020991B9850F8210078
:102EB000014601E00BE24CE00190029800F0FDFFBA
:102EC0000390049900F06AFDA249059000F0F8FE15
:102ED000A149069000F0F1FF079000F071FE80B26A
:102EE0000990DDE91010401A029000F089FE04906C
:102EF000109800F085FE029020991B9800EB81004D
:102F000050F8040C01460190029800F0D6FF03909F
:102F1000049900F043FD8F49059000F0D1FE8E49E1
:102F2000069000F0CAFF079000F04AFE80B20890B9
:102F30000B9920984843293080B207902098401E72
:102F40004843293080B20690DDE90813079AFDF75F
:102F5000EDFD2098401CC0B220900A99209888422C
:102F6000FFF635ADDDE91210401A039000F048FE7F
:102F70000590129800F044FE03900A991F9800EB08
:102F8000810050F8040C01460290039800F095FF70
:102F90000490059900F002FD6E49069000F090FE45
:102FA0006F49079000F089FF089000F009FE80B299
:102FB0000990012010216BA2CDE9002102900A980E
:102FC000401E0B99484300E082E1293080B24FF661
:102FD000FF731A4608900999FEF77CFDDDE914108D
:102FE000401A039000F00CFE0590149800F008FEC3
:102FF00003900A991E9800EB810050F8040C0146DA
:103000000290039800F059FF0490059900F0C6FC67
:103010005049069000F054FE5149079000F04DFFD2
:10302000089000F0CDFD80B20990012010214DA242
:10303000CDE9002102900A98401E0B99484329309F
:1030400080B24FF6FF734FF4784208900999FEF76B
:1030500041FDDDE90E10401A039000F0D1FD05900E
:103060000E9800F0CDFD03900A991C9800EB8100AA
:1030700050F8040C01460290039800F01EFF0490E3
:10308000059900F08BFC3349069000F019FE344995
:10309000079000F012FF089000F092FD80B20990B6
:1030A000012010212FA2CDE9002102900A98401E94
:1030B0000B994843293080B24FF6FF731A460890A7
:1030C0000999FEF707FDDDE91001081A039000F0E9
:1030D00097FD0590109800F093FD03900A991B98B6
:1030E00000EB810050F8040C01460290039800F0B8
:1030F000E4FE0490059900F051FC1649069000F09A
:10310000DFFD1749079000F0D8FE089000F058FD49
:1031100080B209900120102112A2CDE90021029075
:103120000A98401E0B994843293080B24FF6FF732E
:103130001F2208900999FEF7CDFC1598139014985A
:10314000129011980F9010980E90139880420BD007
:1031500001200AE000004843000066430800002008
:1031600000005F433E0000000020129A1499914233
:1031700001D0012100E00021084308B101200D9099
:103180000F991198884201D0012000E000200E9A8A
:103190001099914201D0012100E00021084308B1BB
:1031A00001200C900D98012865D14FF478405149C9
:1031B0000880159800280EDD01200C214EA24FF644
:1031C000FF73CDE9002102904FF478421C210020CA
:1031D000FEF780FC0CE001200C2147A24FF6FF73A4
:1031E000CDE9002102901F221C210020FEF772FC75
:1031F000149800280EDD01200C213FA24FF6FF732A
:10320000CDE9002102904FF47842DC210020FEF746
:1032100061FC0CE001200C2137A24FF6FF73CDE9D1
:10322000002102901F22DC210020FEF753FC15989C
:1032300009900C2000900998002801DB099801E012
:1032400009984042022302461C2108900620FEF7FE
:1032500083F8149809900C2000900998002801DB4D
:10326000099801E00998404202230246DC210890B7
:103270000620FEF771F80C98012838D11F201D494F
:103280000880119809900C2000900998002801DB13
:10329000099801E009984042022302461C21089047
:1032A0004FF49A70FEF758F8109809900C2000908F
:1032B0000998002801DB099801E00998404202239F
:1032C0000246DC2108904FF49A70FEF745F80EE0B4
:1032D000012003234FF478420F210090E120FDF7F5
:1032E0009DFB3220FEF7B4FD002004490880FFF763
:1032F000E2B90000080000202A000000342C014040
:1033000001460A69D1E901309860D1E901035860AA
:103310005068884201D188685060002008611068B8
:10332000401E10601068704700F1080141604FF0C6
:10333000FF31816000F10801C1600161002101607D
:10334000704700210161704710B502460B685C1C94
:103350000CB9106907E002F1080000E04068446819
:1033600024689C42FAD944684C604C68A16088602B
:1033700041600A611468641C146010BD00BFBF2066
:1033800080F31188BFF34F8FBFF36F8F00BF0348E7
:103390000068401C01490860704700005800002088
:1033A00006480068401E054908600846006820B9C4
:1033B000002080F3118800BF00BF70475800002034
:1033C00070B506463546E6B1083D2C466068C00F2C
:1033D000B8B12068A8B9606820F00040606000F0D3
:1033E00073F808496068096808440649086020467F
:1033F000FEF736FF04480068401C0349086000F0EF
:10340000B1F970BD0C0000681800006800204FF092
:10341000E02108618861024848610720086170471F
:103420003F19010070B50446002544B100F04CF886
:1034300000212046FEF756FD00F094F905463DB9FF
:103440004FF0805003490860BFF34F8FBFF36F8F79
:1034500070BD000004ED00E01CB5134800210B46D0
:103460004FF48072CDE9001010A1124800F07EF8F0
:103470000446012C14D100BFBF2080F31188BFF394
:103480004F8FBFF36F8F00BF4FF0FF300A490860C6
:1034900001200A49086000200949086000F04CF842
:1034A000084800681CBD00004C00002049444C4501
:1034B00000000000552100084800002034000020D2
:1034C0002C0000205000002002480068401C0149E8
:1034D00008607047540000201248006818B10120AD
:1034E000114908601DE000200F4908600F4800687E
:1034F000B0FA80F0C0F11F0101EB81020C4B03EB2D
:10350000820042685268426000F1080243689342B8
:1035100002D14268526842604268D268054B1A6024
:1035200000BF7047540000203C0000203000002005
:10353000800000201800002010B50A48006840F400
:103540007F00084908600846006840F07F40086036
:10355000FFF75CFF002004490860FCF749FE0020EB
:1035600010BD000020ED00E0580000202DE9FF4FC5
:1035700085B0804689461746DDE912ABB800FEF7F4
:10358000C7FE064676B14C20FEF7C2FE04462CB1BB
:103590004C212046FCF7A5FE266304E03046FFF7E9
:1035A0000FFF00E000247CB10020CDE900ABCDE9A5
:1035B00002403A4649464046089BFEF7DFFD20465A
:1035C000FEF7F0FC012501E04FF0FF35284609B079
:1035D000BDE8F08F2DE9F04100275748006800282A
:1035E0007ED156480068451C544805608DB9544842
:1035F000D0F8008053480068514908605148C0F82D
:10360000008051480068401C4F490860FEF75CFE8E
:1036100000BF4E480068854276D300BF4848006826
:10362000006808B9012000E0002020B14FF0FF3011
:103630004649086067E042480068C068C468666838
:10364000B54202D2414806605DE06069D4E90212E9
:103650008A60D4E902214A60211D42688A4201D170
:10366000E1684160002262610168491E0160A06A50
:1036700098B1A06AD4E907128A60D4E907214A60A8
:1036800004F1180142688A4201D1216A4160002296
:10369000A2620168491E016000BF94F82C1001204D
:1036A00088402B490968084329490860E16A01EB11
:1036B0008101284A02EB81014868A0608268E260CB
:1036C000211D826851608160E16A01EB8101214A1C
:1036D00002EB81026261E16A01EB81011D4A00E0B7
:1036E00022E052F82110491CE26A02EB8202194BD7
:1036F00043F822101849E06A0968C96A88428DD9DE
:1037000001278BE700E000BF13480068C06A00EBA8
:103710008000104951F82000012800D901270F48E6
:10372000006800B1012704E00D480068401C0C4906
:1037300008603846BDE8F081540000202C000020CD
:103740001C00002020000020400000204800002035
:103750003000002080000020180000203C000020E5
:103760003800002070B500240026FFF707FE4B4804
:103770000068401E494908600846006800287DD15D
:1037800047480068002879D05BE04648C068C468B4
:10379000A06AD4E907128A60D4E907214A6004F1DB
:1037A000180142688A4201D1216A41600022A26266
:1037B0000168491E01606069D4E902128A60D4E997
:1037C00002214A60211D42688A4201D1E1684160BC
:1037D000002262610168491E016094F82C100120EA
:1037E00088403149096808432F490860E16A01EBC4
:1037F00081012E4A02EB81014868A0608268E26084
:10380000211D826851608160E16A01EB8101274AD4
:1038100002EB81026261E16A01EB8101234A52F805
:103820002110491CE26A02EB8202204B43F822106D
:103830001F49E06A0968C96A884202D301201D490C
:1038400008601848006808B9012000E0002000283E
:103850009BD00CB1FEF738FD1748056865B100BF75
:10386000FFF7B8FE10B10120124908606D1E002D4F
:10387000F6D10020104908600E4800E009E0006819
:1038800038B1012630070D490860BFF34F8FBFF3F1
:103890006F8FFFF785FD304670BD0000540000209B
:1038A000280000207001002030000020800000204F
:1038B000180000203C0000203800002004ED00E04B
:1038C00090EA010F48BF81F0004100F10883421ADD
:1038D0003CBF801A89184FEAD0524FF07F4C1CEA47
:1038E000410FA2EBD15318BF9CEA026F00F03B805E
:1038F0004FF0004C4CEA00204CEA012121FA03FC75
:1039000010EB0C0C1ED202F1FF325FEA1C2040EBE0
:10391000C25038BF70471CF07F0F4FEA400C18BFF1
:10392000BCF17F4F38BF7047C3F12003994008BFF7
:1039300020F00100BCF17F4F38BF7047A0F1C040BC
:1039400000F085BA4FEA3C00000A40EBC25028BFA5
:103950001CF0FF0F4FEA400CE6D018BFBCF17F4FC0
:1039600038BF7047EAE79CEA026F05D010EA5C0FA7
:1039700008BF00F00040704710B500F022FA00BF09
:1039800064FBBE3E401058BFC0F14040491058BFD4
:10399000C1F140418142EFF3008070474FF47F0C4A
:1039A0001CEAD0121EBF1CEAD11392EA0C0F93EA54
:1039B0000C0F00F0858090EA010F48BF42F480723E
:1039C00040F4000C41F400002CF07F4120F07F40D7
:1039D00000B58142A2EB03020FF2081CACEB504E83
:1039E000C0F100009EF800E04FEA4E0E00FB0EFC16
:1039F00038BF49004FEA2C1C02F5FA020CFB0EF30B
:103A00004FEACE1E4FEA112C4FEAC1210EEB635E46
:103A100042EB22420EFB0CFC4FEA1C5300FB03114D
:103A20004FEA112C4FEA01310EFB0CFC4FEADC4C43
:103A300000FB0C11C14228BF09184CEB03335DF8A1
:103A400004EB10EB410143EBC250B2F57C0F38BFE1
:103A5000704729D512F0F00F1CBF00F1C04000F0F4
:103A600000407047008182838485868788898B8C9B
:103A70008D8E8F919293959697999A9C9D9FA0A2D7
:103A8000A3A5A7A8AAACAEB0B2B3B5B7B9BCBEC027
:103A9000C2C5C7C9CCCED1D4D7D9DCDFE2E6E9ECC8
:103AA000F0F3F7FAFE0000004FEA400C0CF1807CC6
:103AB000BCF17E4F28BF7047B0F1C04000F0C7B9DD
:103AC00090EA010F0CEAD11348BF42F480726245BC
:103AD00038BF634507D213F47F0F16D080EA010088
:103AE00000F00040704710B500F06BF9097EFC3E15
:103AF00000F005B880EA010000F00040704780EA5D
:103B0000010000F0004000F0A2B912F47F0F04BFE2
:103B10000248704780EA010000F099B90000C07FB8
:103B200050EA010C00F113801CF5000F58BFBCF5E2
:103B3000000F01D48842704707D710F5000F58BF17
:103B400011F5000F15D488427047894270471CF563
:103B5000000F04D5BCF5000FF7D5814270474FF038
:103B6000807C1CEB400F38BF1CEB410F01D281421F
:103B7000704710B500F025F9922449004FF000502D
:103B80004FF08051FFF7FEBE41000B0ED3F19E02B5
:103B900008D950F400034FEA032323FA02F048BF88
:103BA0004042704710B500F00CF900BF49922480E4
:103BB000002070476FF0004282EA2000704700004A
:103BC000C10DD1F19E0206DB4FEA002343F0004312
:103BD00023FA02F07047004207D54FEA4001B1F1E5
:103BE000FE4F02D24FF00000704710B500F0E9F828
:103BF00049922480002070476FEA2000704700003F
:103C000010F0004148BF4042B0FA80F310FA03F2CE
:103C1000C3F19D030BD051EAC35101EB12205306AF
:103C200038BF704700F1010008BF20F00100704765
:103C3000B0FA80F310FA03F2C3F19D030AD0D9055C
:103C400001EB1220530638BF704700F1010008BF96
:103C500020F001007047000050EA010C00F11380D1
:103C60001CF5000F58BFBCF5000F01D48842704707
:103C700007D710F5000F58BF11F5000F15D4884273
:103C80007047894270471CF5000F04D5BCF5000F42
:103C9000F7D5814270474FF0807C1CEB400F38BF56
:103CA0001CEB410F01D28142704710B500F089F83A
:103CB000922449004FF000504FF08051FFF762BE50
:103CC0004FF47F0C1CEAD0121EBF1CEAD11392EAFB
:103CD0000C0F93EA0C0F00F0478090EA010F48BFE9
:103CE00042F480724FF0004C4CEA00204CEA012173
:103CF00002EB0302A0FB0113A2F50002002918BF8A
:103D000043F001035B0028BF4FEA330342EB22423A
:103D10005FEA132C4CEBC2502EBFBCEB436FB2F5E5
:103D20007C0F70474FEA036CBCF1004F08BF20F0D6
:103D30000100B2F57C0F38BF70470BD582F0FF024F
:103D400012F5803FC8BF704700F1C040D8BF00F0F7
:103D50000040704700F5000C5FEA4C0C48BF70470C
:103D6000B0F1C04000F073B890EA010F0CEAD11333
:103D700048BF42F48072624538BF634504D280EA8E
:103D8000010000F00040704710B500F01AF800BFC5
:103D90008900013E00F007B800F009B85FEA410C65
:103DA0005FEA1C6C08D080EA010000F050B85FEABE
:103DB000400C5FEA1C6CF6D14FF00040A0F580008B
:103DC00070470EF1020E2EF0030E5EF8044B2442F3
:103DD00004D44FEA4102B2F17F4F11D84FEA4003B9
:103DE000B3F17F4F0CD80ED14FEAD07CB2F17F4FA8
:103DF0000CEB4C0C0CF1020C08BF4CEBD17C04E03A
:103E00004FF0080C01E04FEAD17C0CEB4C0324FA94
:103E100003F404F00704B4F1040C06D20EEB840C96
:103E2000BDE810404CF0010C6047DFE80CF00708DB
:103E300002024FF00040A0F5800010BD084642008D
:103E400018BFD2F1807288BF00F0004010BDFF2182
:103E500041EAD050C005704751EA000C00F11380D0
:103E60001CF5000F58BFBCF5000F01D4814270470C
:103E700007D711F5000F58BF10F5000F15D4814278
:103E80007047894270471CF5000F04D5BCF5000F40
:103E9000F7D5884270474FF0807C1CEB410F38BF4C
:103EA0001CEB400F01D28842704780EA010081EA92
:103EB000000180EA0100FFF7F8BE80F0004090EAC0
:103EC000010F7FF504AD81F0004100F008B800005B
:103ED00090EA010F48BF81F000413FF5F8AC421A6B
:103EE00004D882F00042A0EB020011444FEAD05205
:103EF0004FF07F4C1CEA410FA2EBD15318BF9CEA54
:103F0000026F4AD04FF0004C4CEA00204CEA0121ED
:103F100021FA03FCB0EB0C0C0FD412F0FE0F36D0DC
:103F20005FEA4C001DD5001240EBC25038BF70470D
:103F30001CF03F0F18BF70470BE0A2F101025FEACF
:103F40001C2040EBC25038BF70471CF07F0F18BFD9
:103F50007047C3F12003994014BF401E20F00100B8
:103F6000704780084FEA122308BF7047B0FA80FC00
:103F7000A2EB0C02CCF1280C60FA0CF093EA122FA1
:103F800004BF00EBC25070474FEAC3707047130A7A
:103F90005FEADC1008BF7047F6E79CEA026F04D0C6
:103FA00010EA5C0F08BF0020704710B5FFF709FF4B
:103FB00040DFF63E81F00040704700000000000046
:103FC00000000000000000000404040404040004D5
:103FD000000000140A0A00000000000000000000B9
:103FE00014143F140A3F0A0A000000041E150506B7
:103FF0000C14150F0400000012150D0A142C2A12BF
:1040000000000000040A0A1E15150936000000020F
:104010000201000000000000000000201008080855
:10402000080808102000000204080808080808040E
:10403000020000000004150E0E1504000000000030
:104040000404041F04040400000000000000000039
:1040500000000002020100000000001F000000003C
:10406000000000000000000000000002000000103E
:104070000808080404020202010000000E111111D8
:104080001111110E00000000040604040404040EC3
:10409000000000000E1111080402011F00000000C2
:1040A0000E11100C1010110E00000000080C0A0A6E
:1040B000091E0818000000001F01010F1010110E4A
:1040C000000000000E09010F1111110E0000000088
:1040D0001F09080404040404000000000E11110E5E
:1040E0001111110E000000000E1111111E10120E00
:1040F00000000000000004000000000400000000B8
:104100000000000400000004040000201008040265
:10411000040810200000000000001F00001F000025
:104120000000000204081020100804020000000033
:104130000E11110804040004000000000E111915EE
:10414000151D011E0000000004040C0A0A1E123393
:10415000000000000F12120E1212120F00000000D9
:104160001E1101010101110E000000000F121212B8
:104170001212120F000000001F120A0E0A02121F74
:10418000000000001F120A0E0A02020700000000D1
:104190001C1201013911120C000000003312121E12
:1041A00012121233000000001F0404040404041F50
:1041B000000000003E080808080808090700000081
:1041C00037120A060A0A123700000000070202022C
:1041D0000202223F000000001B1B1B1B15151515BA
:1041E000000000003B1216161A1A121700000000F9
:1041F0000E1111111111110E000000000F12120EFC
:1042000002020207000000000E1111111117190E11
:10421000180000000F12120E0A12123700000000E0
:104220001E1101060810110F000000001F150404E4
:104230000404040E00000000331212121212120CB9
:10424000000000003312120A0A0C040400000000EF
:104250001515150E0A0A0A0A000000001B0A0A04B6
:10426000040A0A1B000000001B0A0A040404040ECE
:10427000000000001F0908040402121F0000001CB7
:1042800004040404040404041C00000202020404E4
:10429000080808100000000E0808080808080808A8
:1042A0000E0000040A0000000000000000000000F2
:1042B0000000000000000000003F000400000000BB
:1042C00000000000000000000000000C121C123C66
:1042D000000000000302020E1212120E0000000085
:1042E0000000001C1202021C000000001810101C2C
:1042F0001212123C000000000000000C121E021CF2
:10430000000000003804041E0404041E0000000025
:104310000000003C120C021E221C00000302020ED0
:104320001212123700000000040000060404040EFC
:10433000000000000800000C08080808080700003A
:104340000302023A0A0E12370000000007040404B8
:104350000404041F000000000000000F15151515CF
:10436000000000000000000F1212123700000000D1
:104370000000000C1212120C000000000000000FE0
:104380001212120E020700000000001C1212121C72
:10439000103800000000001B0602020700000000A9
:1043A0000000001E020C101E000000000004040E9D
:1043B00004040418000000000000001B1212123C4C
:1043C0000000000000000037120A0C04000000008A
:1043D00000000015150E0A0A000000000000001B76
:1043E0000A040A1B0000000000000037120A0C0437
:1043F000040300000000001E0804041E0000001852
:104400000808080408080808180008080808080828
:104410000808080808080006040404080404040442
:104420000600022518000000000000000000000047
:10443000000000000000000000000000000000007C
:1044400000080808080808080000181800000048BC
:104450006C241200000000000000000000000000BA
:10446000002424247F1212127F1212120000000076
:10447000081C2A2A0A0C1828282A2A1C08080000C6
:104480000022251515152A58545454220000000006
:10449000000C1212120A76252911916E00000006F6
:1044A00006040300000000000000000000000040BF
:1044B000201010080808080808101020400000020A
:1044C0000408081010101010100808040200000062
:1044D000000008086B1C1C6B0808000000000000AE
:1044E0000000080808087F0808080800000000000D
:1044F00000000000000000000000060604030000A9
:10450000000000000000FE000000000000000000AD
:10451000000000000000000000000606000000008F
:10452000804040202010100808040402020000000F
:104530000018244242424242424224180000000035
:1045400000080E08080808080808083E00000000D7
:10455000003C4242422020100804427E000000003D
:10456000003C4242201820404042221C0000000033
:1045700000203028242422227E2020780000000001
:10458000007E0202021A26404042221C0000000067
:1045900000382402021A2642424224180000000079
:1045A000007E2222101008080808080800000000F9
:1045B000003C4242422418244242423C0000000097
:1045C00000182442424264584040241C000000006D
:1045D000000000001818000000001818000000007B
:1045E00000000000000800000000000808040000AF
:1045F00000402010080402040810204000000000C1
:10460000000000007F0000007F00000000000000AC
:1046100000020408102040201008040200000000DE
:10462000003C4242464020101000181800000000D4
:10463000001C225A555555552D42221C00000000E1
:10464000000808181414243C224242E7000000002D
:10465000001F2222221E22424242221F000000008E
:10466000007C4242010101010142221C00000000C5
:10467000001F2242424242424242221F00000000EA
:10468000003F4212121E12120242423F000000007E
:10469000003F4212121E1212020202070000000026
:1046A000003C2222010101712122221C0000000095
:1046B00000E7424242427E42424242E7000000009E
:1046C000003E0808080808080808083E0000000026
:1046D000007C10101010101010101010110F00009E
:1046E000007722120A0E0A1212222277000000001E
:1046F00000070202020202020202427F00000000E2
:104700000077363636362A2A2A2A2A6B000000001D
:1047100000E346464A4A5252526262470000000095
:10472000001C2241414141414141221C0000000046
:10473000003F424242423E020202020700000000E5
:10474000001C2241414141414D53321C6000000098
:10475000003F4242423E1212222242C700000000A5
:10476000007C4242020418204042423E0000000009
:10477000007F4908080808080808081C0000000015
:1047800000E74242424242424242423C00000000B4
:1047900000E74242222424141418080800000000F4
:1047A000006B494949495555362222220000000034
:1047B00000E7422424181818242442E700000000CF
:1047C00000772222141408080808081C00000000C2
:1047D000007E2120101008040442423F00000078AF
:1047E00008080808080808080808080878000000F1
:1047F0000202040408080810102020204040001E77
:104800001010101010101010101010101E00003892
:104810004400000000000000000000000000000054
:1048200000000000000000000000000000FF000683
:104830000800000000000000000000000000000070
:1048400000000000003C4278444242FC00000000AE
:1048500000030202021A26424242261A0000000009
:10486000000000000038440202024438000000004A
:104870000060404040784442424264D8000000005A
:1048800000000000003C427E0202423C00000000AA
:1048900000F08808087E08080808083E00000000AC
:1048A00000000000007C22221C023C42423C00002E
:1048B00000030202023A4642424242E70000000080
:1048C000000C0C00000E08080808083E000000005C
:1048D000003030000038202020202020221E000040
:1048E000000302020272120A161222770000000070
:1048F000000E0808080808080808083E0000000024
:1049000000000000007F9292929292B70000000097
:1049100000000000003B4642424242E70000000027
:1049200000000000003C42424242423C00000000C5
:1049300000000000001B26424242221E0207000027
:1049400000000000007844424242447840E0000009
:104950000000000000774C040404041F0000000065
:1049600000000000007C42023C40423E000000008B
:1049700000000008083E0808080808300000000091
:104980000000000000634242424262DC000000007E
:104990000000000000E74224241408080000000082
:1049A0000000000000EB494955552222000000009C
:1049B00000000000007624181818246E0000000083
:1049C0000000000000E74224241418080807000033
:1049D00000000000007E22100808447E000000C095
:1049E000202020202010202020202020C000101077
:1049F00010101010101010101010101010100006D1
:104A000008080808081008080808080806000C32FA
:104A1000C200000000000000000000000000C9EE1D
:104A2000000027FC140414A48110420840401040E8
:104A300017FC2040E0E0215022482C462040004056
:104A4000DBDA11041124112411241124FD24112472
:104A500011241124112411241D24E12442240204D0
:104A60000404CAD00200010000007FFC0100010024
:104A700001003FF8210821082108210821282110E0
:104A800001000100C8AB00000000018002400430BA
:104A9000180860061FF90100010001003FF801003D
:104AA000010001007FFEB6AF0000000000203E20A4
:104AB000007C002200227F221022102212221222C9
:104AC000224223423D82009CB5E700000100010024
:104AD0001FF0610C410441047FFC41044104410486
:104AE0007FFC01000102010201FCD7D3000000009D
:104AF0003FF8001000600080010000807FFE004051
:104B0000004000200020002018400780BCBC10207E
:104B10001020102013FEFC201020102015FC1884FB
:104B20003088D04810501020105051882606CAF501
:104B300001000120011001107FFC038005400540A9
:104B40000920111021084104810201000100010027
:104B5000D3D002000200FFFE040004000FF0081092
:104B600018102FF0481088100FF008100810085087
:104B70000820CFDE00007BF84A08520853F862088C
:104B800052084BF84A444A486A3052204210428840
:104B900043064200B9AB008004800480084008400E
:104BA0001020201042088206040004400820102033
:104BB0003FF010100000CBBE00003FF800080008D6
:104BC0007FE8000800081F88108810881088108867
:104BD0001F88108800280010BBB600800080FC8071
:104BE00004FC050449082A401440104028A024A0D1
:104BF00045108110020804040802D3AD0000208093
:104C0000133C122402240224F2241224122412B48B
:104C1000132812201020282047FE0000C4FA0900A3
:104C2000090011FC320454489950114812441444AC
:104C30001140108002005104511290120FF0B4BFC5
:104C400000000020102013FE202026244A247A246D
:104C50001224222423FC7C20002204227822003CFF
:104C6000C9AB0000000004000FF0102020207FFCE2
:104C700020842084208420843FF820002002200209
:104C80001FFECCEE00000000204023FE204079FCF7
:104C9000220423FC220423FC220423FC3A0465FAA8
:104CA00001980204B3E40000010001007FFE02202D
:104CB0000410040808043FFC044204400440044279
:104CC00008421042607EBED800000000207E3E8078
:104CD0004880488048FE48827F8208820C8214FA0D
:104CE00012842280218040FED0CE000000007F840C
:104CF0002208223022C0220222047FC8223022C28F
:104D000022022204220822304040BBAD00000000F5
:104D10007FFE00000FF011101110111051125FF200
:104D20005112511251124FF240027FFCD4B20000D6
:104D300000007FFE47E24812481247E24FF250124D
:104D400050125112511242924472580A3FFCCDBC8B
:104D5000000000003FFE440247F24C2253624082B2
:104D600043625E1A41824062430240C240223FFCDD
:104D7000C6AC000000402040204020403FFE200004
:104D8000200020003FE020102010201020104010B4
:104D90004010CFD4000000003FFC200420043FFC62
:104DA000200420041FF824441448144814480C50CC
:104DB00004407FFECABE000000003FFC000000006F
:104DC00000007FFE008008900888108810842084EE
:104DD000208240820780B2CB0000002008207FFEA6
:104DE000002000783F881108089009207FFE01808C
:104DF00003400D30310C4002B5A500000010081032
:104E000004203FF8210421043FFC210421043FF841
:104E100001007FFE010001000100D6D0000001006A
:104E2000010001003FFC210421042104210421048C
:104E300021043FFC0100010001000100D3A2000099
:104E4000000008207FFE0820092001003FF821080B
:104E5000210821081FF4014002200C10700ECEC45E
:104E600000000100010000803F7C081008100410C1
:104E70000420022002400180018002601C18E0062C
:104E8000D7DB00000000102011FE2202220249FCA4
:104E90005800300013FE2528792401240D247222A5
:104EA00002A2BACF000000000180024004301808BE
:104EB00060061FF800001FF82004200420042004CE
:104EC00020041FF8C1C10000010001007FFE0000A6
:104ED0003FF820083FF83FF8400647C24824082022
:104EE00008221022603EB6C80000000000803FFE8D
:104EF00044105FFC4410441043F040005FF8440845
:104F0000423041C04360BC1EB2E20000000067C2F4
:104F1000145205520552C5522552055205521552DA
:104F20001752228222424442483ECAD40000000066
:104F30002014101417FE00120010601013F01090CF
:104F400010901090149214EA1F0A0006B3CC0000CF
:104F5000000019FE7202120212027DFC18001BFEF4
:104F60003420502053FE10201020102013FED0F2C9
:104F70000000000000803FFE400047FC4208413036
:104F800040C05FFE404240424044404840404440B0
:104F9000B5F70000000023FE122202FA0222E222EC
:104FA00012FE1272128A128A128A16BA1A42120259
:104FB000040EB9E2000001000104110809080910FB
:104FC00009207FFE04400440044004400842084297
:104FD0001042607CB0E60000000048FE4900490035
:104FE00049007EFE418241447944452845284510C8
:104FF000452846440382C8A800001000100013FC96
:105000007D0411041904188434885048505010202D
:105010001050108813041402CBF9000000003F7CEC
:10502000204020403E40227E2244224422443E84AE
:1050300020842084408441044204C6C100003FF81B
:10504000200820083FF8241022202FF822202220B8
:105050003FFC22204220442084200820C4BB04407E
:105060007FFC04401FF010101FF010101FF0040010
:10507000FFFE11103FF8D116115011200100D0FD94
:105080002080108010FE0100FE0021FC20243C2422
:1050900024A024A024BC24A024A04560553E8A005E
:1050A000D7AA202020202020FDFC4020504093FE45
:1050B000FC40108011FC1C04F0885050102010108F
:1050C0001010BFAA00007FFC08200820082008203C
:1050D0000820FFFE082008200820082010201020AB
:1050E00020204020D4B4000027FE1420144085FC6A
:1050F000450445FC150415FC2524E42024A8292496
:105100002A2230A00040D2BA0080204017FE112091
:105110008120423C4244166412942348E2482230E3
:105120002220225022880306BEA70FE00820082074
:105130000FE0082008200FE000007EFC428442843B
:105140007EFC428442847EFC4284CDF800007FFCD9
:1051500040044004421452944A54442444244A547F
:105160004A5452946104400440144008D5BE1020B3
:10517000082008207E20003E04204420442025FCF6
:10518000290429040F04F104410401FC0104B0B412
:1051900010401020102013FEFA02144410401BFE91
:1051A0003088D088110810D0102010505088230467
:1051B000BCFC201020103B7C211441FE7A14A27C00
:1051C0002710F97C251025FE22102A10350028FE14
:1051D0000000D0A310401020102011FEFC00108809
:1051E00031043A02548850889050105010201050CA
:1051F00010881306D7BC01404120212023FE022045
:1052000016201BFC1220222023FCE2202220222038
:1052100023FE22000200B4A520202020782049FC93
:1052200091247D24552455247DFC552454207C282C
:10523000542457FE45028C00C3FE1110111017FCB8
:105240001110FC0013F8120817F81A0833F8D040B0
:1052500017FC10A0111052082406C9EE000000002F
:1052600000001000000800080C7FFC04401001C87A
:10527000A002186042301832231812C30014030031
:1052800004030C047FF0080F80080B4078136018AB
:10529000332018631818831C19030818030000032F
:1052A00000000000DBDA00000000000004100C0425
:1052B000180C04108C04108C04108C04108C04D076
:1052C0008C3F108C04108C04108C04108C04108CF7
:1052D00004108C04108C05F08C0E208C78208C200F
:1052E000408C00808C01000C02000C000000CAD031
:1052F0000000000000000030000018000018080046
:10530000001C1FFFE000180000182007FFF0041821
:105310002004182004182004182004182004182041
:105320000418200418200418200418E00418400071
:105330001800001800000000D6D000000000000097
:105340000000000000000018000018000018000015
:1053500018003FFFFE3018063018063018063018C7
:10536000063018063FFFFE3018060018000018002F
:1053700000180000180000180000000000000000E5
:105380000000CEC400000000000000000000380053
:10539000001C00000600FFFFFF060030060030037F
:1053A00000600300600180C000C18000E30000369F
:1053B00000001C0000770003C1E01E003C600007F5
:1053C000000000000000000000000000B2E2000049
:1053D0000000000000000000000040000321FF3337
:1053E000398333118333019B33C19B33719B331951
:1053F0009B33019B33019B33119B3319B333303003
:1054000033306C0330C6036383032E01BE000000FB
:10541000000000000000CAD40000000000000000EE
:10542000000000004000D83000CE1800C21C00C0B0
:1054300001FFFF0000C0F800C01800C019FFC0182D
:1054400018401818601918601B18611E18311C1FAD
:10545000B139F01910000F0000000000000000003A
:10546000D7D6000000000006000000030000000086
:10547000C0000001C0C0000107C00001FF00021F02
:10548000FE0007F01C0007C070000F00E0000E03D4
:10549000F0001C0FF0003C0F70003C00E000180012
:1054A000C0000000C0000000C0000000600000005C
:1054B0002000000037000001FF00007FF80007F81F
:1054C00030001F8030000080300000C030000060DD
:1054D00060000018E000000FC0000006000000009F
:1054E0000000CCE50000000000000000000000C04B
:1054F000000000E0002001B800703FF80061FFC02C
:1055000000C3030001C60600038C060003080C005C
:1055100006080C000E18183F1E101BF31F903F07C3
:1055200000803C1C0190707C019060FE01A0C3F8DB
:1055300001A00FD803A0081803600018034000184A
:1055400003C00018038000180300001800000018B2
:1055500000000010000000300000003000000000DB
:1055600000000000B2E200000000000000000000A7
:10557000000000000000020C1008071FF80403BF21
:10558000F00201BC300303EC3003015C600300D87F
:10559000600300D860038098620361B8430771B16B
:1055A0004306313243063376C3063A64C7063EECFF
:1055B000C0063E78C0063C3040067C70000678E0AD
:1055C00060067BFFF006F7C00006E400000640001E
:1055D0000006000000060000007C00008FF00000C4
:1055E0007C0000000000CAD40000000000000000A1
:1055F0000000000000003F0000007F8000000180EC
:10560000000000C0000000C0000000CE038000CFFA
:10561000FFC000DD41800FFE0007FFFC000C00F022
:1056200000180FC03E19FF40F311BC6083307FE0CB
:1056300003B1FE20033380200370003003600010AC
:105640000360001807C0000C07C0000407800002B8
:105650000100000300000001000000000000000045
:105660000000000000000000A85600080000002014
:105670005C0000006C01000804570008000000688E
:105680001C0000006C010008045700085C000020AA
:10569000D407000088010008205700081C0000689B
:1056A00000A00F00880100080000000000000000BA
:1056B0000000FFFF000000000000000000000000EC
:1056C00000000000000000000000000000000000DA
:1056D00000000000000000000000000000000000CA
:1056E00000000000000000000000000000000000BA
:1056F00000000000000000000900000000000000A1
:10570000AAAAAAAA000000000000000000000000F1
:105710000000000000000000000000000000000089
:0400000508000131BD
:00000001FF
